S010000064696D6D657276322E73726563EE
S11300000C942A000C9447000C9447000C946E0046
S11300100C9447000C9447000C9447000C94470040
S11300200C9447000C9447000C9447000C94470030
S11300300C9447000C9447000C9447000C94470020
S11300400C9447000C9447000C9447000C94470010
S11300500C94470011241FBECFE5D8E0DEBFCDBF0E
S113006010E0A0E6B0E0E6EAF1E002C005900D92EF
S1130070A236B107D9F720E0A2E6B0E001C01D9294
S1130080A636B207E1F70E94CB000C94D1000C9481
S113009000008EB588608EBD89B7806189BF0895E0
S11300A09BBD8ABD1DBC1CBC8EB581608EBD08B6CF
S11300B004FEFDCF1EBC88B7806188BF08958C9A6A
S11300C0BA9884B78F7B84BF8BB780628BBF0E9442
S11300D04900789408958093600008951F920F92C8
S11300E00FB60F9211242F933F934F935F936F9307
S11300F07F938F939F93AF93BF93EF93FF938091DD
S11301006000853010F4949835C0809160002FEF22
S113011030E0281B310944E051E0249FC001259FB1
S1130120900D349F900D1124A0E0B0E08093620004
S113013090936300A0936400B09365008091620083
S113014090916300A0916400B0916500892B8A2B83
S11301508B2B51F08091620090916300A091640018
S1130160B09165000E945000949A88EC90E00E943F
S113017050009498FF91EF91BF91AF919F918F910F
S11301807F916F915F914F913F912F910F900FBE8F
S11301900F901F9018950E945F0080E00E946B00F2
S10901A0FFCFF894FFCF2D
S10501A6FA0059
S9030000FC
